{
  "_format": "hh-sol-artifact-1",
  "contractName": "Create",
  "sourceName": "contracts/VotingContract.sol",
  "abi": [
    {
      "inputs": [],
      "stateMutability": "nonpayable",
      "type": "constructor"
    },
    {
      "anonymous": false,
      "inputs": [
        {
          "indexed": true,
          "internalType": "uint256",
          "name": "candidateId",
          "type": "uint256"
        },
        {
          "indexed": false,
          "internalType": "string",
          "name": "name",
          "type": "string"
        },
        {
          "indexed": false,
          "internalType": "string",
          "name": "age",
          "type": "string"
        },
        {
          "indexed": false,
          "internalType": "string",
          "name": "image",
          "type": "string"
        },
        {
          "indexed": false,
          "internalType": "uint256",
          "name": "voteCount",
          "type": "uint256"
        },
        {
          "indexed": false,
          "internalType": "address",
          "name": "_address",
          "type": "address"
        },
        {
          "indexed": false,
          "internalType": "string",
          "name": "ipfs",
          "type": "string"
        }
      ],
      "name": "CandidateCreate",
      "type": "event"
    },
    {
      "anonymous": false,
      "inputs": [
        {
          "indexed": true,
          "internalType": "uint256",
          "name": "voter_voterId",
          "type": "uint256"
        },
        {
          "indexed": false,
          "internalType": "string",
          "name": "voter_name",
          "type": "string"
        },
        {
          "indexed": false,
          "internalType": "string",
          "name": "voter_image",
          "type": "string"
        },
        {
          "indexed": false,
          "internalType": "address",
          "name": "voter_address",
          "type": "address"
        },
        {
          "indexed": false,
          "internalType": "uint256",
          "name": "voter_allowed",
          "type": "uint256"
        },
        {
          "indexed": false,
          "internalType": "bool",
          "name": "voter_voted",
          "type": "bool"
        },
        {
          "indexed": false,
          "internalType": "uint256",
          "name": "voter_vote",
          "type": "uint256"
        },
        {
          "indexed": false,
          "internalType": "string",
          "name": "voter_ipfs",
          "type": "string"
        }
      ],
      "name": "VoterCreated",
      "type": "event"
    },
    {
      "anonymous": false,
      "inputs": [],
      "name": "VotingEnded",
      "type": "event"
    },
    {
      "anonymous": false,
      "inputs": [],
      "name": "VotingStarted",
      "type": "event"
    },
    {
      "inputs": [],
      "name": "_candidateId",
      "outputs": [
        {
          "internalType": "uint256",
          "name": "_value",
          "type": "uint256"
        }
      ],
      "stateMutability": "view",
      "type": "function"
    },
    {
      "inputs": [],
      "name": "_voterId",
      "outputs": [
        {
          "internalType": "uint256",
          "name": "_value",
          "type": "uint256"
        }
      ],
      "stateMutability": "view",
      "type": "function"
    },
    {
      "inputs": [
        {
          "internalType": "uint256",
          "name": "",
          "type": "uint256"
        }
      ],
      "name": "candidateAddress",
      "outputs": [
        {
          "internalType": "address",
          "name": "",
          "type": "address"
        }
      ],
      "stateMutability": "view",
      "type": "function"
    },
    {
      "inputs": [
        {
          "internalType": "address",
          "name": "",
          "type": "address"
        }
      ],
      "name": "candidates",
      "outputs": [
        {
          "internalType": "uint256",
          "name": "candidateId",
          "type": "uint256"
        },
        {
          "internalType": "string",
          "name": "name",
          "type": "string"
        },
        {
          "internalType": "string",
          "name": "age",
          "type": "string"
        },
        {
          "internalType": "string",
          "name": "image",
          "type": "string"
        },
        {
          "internalType": "uint256",
          "name": "voteCount",
          "type": "uint256"
        },
        {
          "internalType": "address",
          "name": "_address",
          "type": "address"
        },
        {
          "internalType": "string",
          "name": "ipfs",
          "type": "string"
        }
      ],
      "stateMutability": "view",
      "type": "function"
    },
    {
      "inputs": [],
      "name": "determineWinner",
      "outputs": [
        {
          "internalType": "address",
          "name": "",
          "type": "address"
        }
      ],
      "stateMutability": "view",
      "type": "function"
    },
    {
      "inputs": [],
      "name": "endVotingPeriod",
      "outputs": [],
      "stateMutability": "nonpayable",
      "type": "function"
    },
    {
      "inputs": [],
      "name": "getCandidate",
      "outputs": [
        {
          "internalType": "address[]",
          "name": "",
          "type": "address[]"
        }
      ],
      "stateMutability": "view",
      "type": "function"
    },
    {
      "inputs": [],
      "name": "getCandidateLength",
      "outputs": [
        {
          "internalType": "uint256",
          "name": "",
          "type": "uint256"
        }
      ],
      "stateMutability": "view",
      "type": "function"
    },
    {
      "inputs": [
        {
          "internalType": "address",
          "name": "_address",
          "type": "address"
        }
      ],
      "name": "getCandidatedata",
      "outputs": [
        {
          "internalType": "string",
          "name": "",
          "type": "string"
        },
        {
          "internalType": "string",
          "name": "",
          "type": "string"
        },
        {
          "internalType": "uint256",
          "name": "",
          "type": "uint256"
        },
        {
          "internalType": "string",
          "name": "",
          "type": "string"
        },
        {
          "internalType": "uint256",
          "name": "",
          "type": "uint256"
        },
        {
          "internalType": "string",
          "name": "",
          "type": "string"
        },
        {
          "internalType": "address",
          "name": "",
          "type": "address"
        }
      ],
      "stateMutability": "view",
      "type": "function"
    },
    {
      "inputs": [],
      "name": "getVotedVoterList",
      "outputs": [
        {
          "internalType": "address[]",
          "name": "",
          "type": "address[]"
        }
      ],
      "stateMutability": "view",
      "type": "function"
    },
    {
      "inputs": [],
      "name": "getVoterLength",
      "outputs": [
        {
          "internalType": "uint256",
          "name": "",
          "type": "uint256"
        }
      ],
      "stateMutability": "view",
      "type": "function"
    },
    {
      "inputs": [],
      "name": "getVoterList",
      "outputs": [
        {
          "internalType": "address[]",
          "name": "",
          "type": "address[]"
        }
      ],
      "stateMutability": "view",
      "type": "function"
    },
    {
      "inputs": [
        {
          "internalType": "address",
          "name": "_address",
          "type": "address"
        }
      ],
      "name": "getVoterdata",
      "outputs": [
        {
          "internalType": "uint256",
          "name": "",
          "type": "uint256"
        },
        {
          "internalType": "string",
          "name": "",
          "type": "string"
        },
        {
          "internalType": "string",
          "name": "",
          "type": "string"
        },
        {
          "internalType": "address",
          "name": "",
          "type": "address"
        },
        {
          "internalType": "string",
          "name": "",
          "type": "string"
        },
        {
          "internalType": "uint256",
          "name": "",
          "type": "uint256"
        },
        {
          "internalType": "bool",
          "name": "",
          "type": "bool"
        }
      ],
      "stateMutability": "view",
      "type": "function"
    },
    {
      "inputs": [],
      "name": "getVotingStatus",
      "outputs": [
        {
          "internalType": "string",
          "name": "",
          "type": "string"
        }
      ],
      "stateMutability": "view",
      "type": "function"
    },
    {
      "inputs": [],
      "name": "getWinnerInfo",
      "outputs": [
        {
          "internalType": "uint256",
          "name": "candidateId",
          "type": "uint256"
        },
        {
          "internalType": "string",
          "name": "name",
          "type": "string"
        },
        {
          "internalType": "string",
          "name": "age",
          "type": "string"
        },
        {
          "internalType": "string",
          "name": "image",
          "type": "string"
        },
        {
          "internalType": "uint256",
          "name": "voteCount",
          "type": "uint256"
        },
        {
          "internalType": "address",
          "name": "_address",
          "type": "address"
        },
        {
          "internalType": "string",
          "name": "ipfs",
          "type": "string"
        }
      ],
      "stateMutability": "view",
      "type": "function"
    },
    {
      "inputs": [
        {
          "internalType": "address",
          "name": "_address",
          "type": "address"
        },
        {
          "internalType": "string",
          "name": "_age",
          "type": "string"
        },
        {
          "internalType": "string",
          "name": "_name",
          "type": "string"
        },
        {
          "internalType": "string",
          "name": "_image",
          "type": "string"
        },
        {
          "internalType": "string",
          "name": "_ipfs",
          "type": "string"
        }
      ],
      "name": "setCandidate",
      "outputs": [],
      "stateMutability": "nonpayable",
      "type": "function"
    },
    {
      "inputs": [],
      "name": "startVotingPeriod",
      "outputs": [],
      "stateMutability": "nonpayable",
      "type": "function"
    },
    {
      "inputs": [
        {
          "internalType": "address",
          "name": "_candidateAddress",
          "type": "address"
        },
        {
          "internalType": "uint256",
          "name": "_candidateVoteId",
          "type": "uint256"
        }
      ],
      "name": "vote",
      "outputs": [],
      "stateMutability": "nonpayable",
      "type": "function"
    },
    {
      "inputs": [
        {
          "internalType": "uint256",
          "name": "",
          "type": "uint256"
        }
      ],
      "name": "votedVoters",
      "outputs": [
        {
          "internalType": "address",
          "name": "",
          "type": "address"
        }
      ],
      "stateMutability": "view",
      "type": "function"
    },
    {
      "inputs": [
        {
          "internalType": "address",
          "name": "_address",
          "type": "address"
        },
        {
          "internalType": "string",
          "name": "_name",
          "type": "string"
        },
        {
          "internalType": "string",
          "name": "_image",
          "type": "string"
        },
        {
          "internalType": "string",
          "name": "_ipfs",
          "type": "string"
        }
      ],
      "name": "voterRight",
      "outputs": [],
      "stateMutability": "nonpayable",
      "type": "function"
    },
    {
      "inputs": [
        {
          "internalType": "address",
          "name": "",
          "type": "address"
        }
      ],
      "name": "voters",
      "outputs": [
        {
          "internalType": "uint256",
          "name": "voter_voterId",
          "type": "uint256"
        },
        {
          "internalType": "string",
          "name": "voter_name",
          "type": "string"
        },
        {
          "internalType": "string",
          "name": "voter_image",
          "type": "string"
        },
        {
          "internalType": "address",
          "name": "voter_address",
          "type": "address"
        },
        {
          "internalType": "uint256",
          "name": "voter_allowed",
          "type": "uint256"
        },
        {
          "internalType": "bool",
          "name": "voter_voted",
          "type": "bool"
        },
        {
          "internalType": "uint256",
          "name": "voter_vote",
          "type": "uint256"
        },
        {
          "internalType": "string",
          "name": "voter_ipfs",
          "type": "string"
        }
      ],
      "stateMutability": "view",
      "type": "function"
    },
    {
      "inputs": [
        {
          "internalType": "uint256",
          "name": "",
          "type": "uint256"
        }
      ],
      "name": "votersAddress",
      "outputs": [
        {
          "internalType": "address",
          "name": "",
          "type": "address"
        }
      ],
      "stateMutability": "view",
      "type": "function"
    },
    {
      "inputs": [],
      "name": "votingEnded",
      "outputs": [
        {
          "internalType": "bool",
          "name": "",
          "type": "bool"
        }
      ],
      "stateMutability": "view",
      "type": "function"
    },
    {
      "inputs": [],
      "name": "votingOrganizer",
      "outputs": [
        {
          "internalType": "address",
          "name": "",
          "type": "address"
        }
      ],
      "stateMutability": "view",
      "type": "function"
    },
    {
      "inputs": [],
      "name": "votingStarted",
      "outputs": [
        {
          "internalType": "bool",
          "name": "",
          "type": "bool"
        }
      ],
      "stateMutability": "view",
      "type": "function"
    }
  ],
  "bytecode": "0x608060405234801561001057600080fd5b5033600260006101000a81548173ffffffffffffffffffffffffffffffffffffffff021916908373ffffffffffffffffffffffffffffffffffffffff1602179055506000600260146101000a81548160ff0219169083151502179055506000600260156101000a81548160ff021916908315150217905550613846806100976000396000f3fe608060405234801561001057600080fd5b50600436106101735760003560e01c80638ab66a90116100de578063b63c82ca11610097578063c64482ab11610071578063c64482ab14610487578063c91ec71214610491578063e80a57a5146104ad578063f7522a83146104b757610173565b8063b63c82ca146103fd578063b9be315214610433578063c5036fd41461045157610173565b80638ab66a90146103185780638e9456851461034e5780639d5a05291461036c578063a3ec138d1461038a578063a7388967146103c1578063b28d92ae146103df57610173565b8063581c281c11610130578063581c281c146102545780635cc48aa7146102725780635f74bbde1461029057806370218b85146102ac5780637831ffb3146102ca57806383d948b7146102fa57610173565b80630361419e1461017857806305ad45a41461019457806322bb26f7146101b257806333b16d93146101d65780633a88251a146101f457806343242daa14610224575b600080fd5b610192600480360381019061018d91906126b1565b6104d5565b005b61019c610783565b6040516101a99190612785565b60405180910390f35b6101ba610790565b6040516101cd979695949392919061282e565b60405180910390f35b6101de610ae4565b6040516101eb91906128b9565b60405180910390f35b61020e60048036038101906102099190612900565b610c39565b60405161021b91906128b9565b60405180910390f35b61023e60048036038101906102399190612900565b610c78565b60405161024b91906128b9565b60405180910390f35b61025c610cb7565b604051610269919061292d565b60405180910390f35b61027a610d99565b60405161028791906128b9565b60405180910390f35b6102aa60048036038101906102a5919061294f565b610dbf565b005b6102b4611025565b6040516102c19190612a4d565b60405180910390f35b6102e460048036038101906102df9190612900565b6110b3565b6040516102f191906128b9565b60405180910390f35b6103026110f2565b60405161030f9190612a8a565b60405180910390f35b610332600480360381019061032d9190612aa5565b611105565b604051610345979695949392919061282e565b60405180910390f35b610356611387565b6040516103639190612a4d565b60405180910390f35b610374611415565b6040516103819190612a8a565b60405180910390f35b6103a4600480360381019061039f9190612aa5565b611428565b6040516103b8989796959493929190612ad2565b60405180910390f35b6103c9611635565b6040516103d69190612785565b60405180910390f35b6103e7611641565b6040516103f49190612a4d565b60405180910390f35b61041760048036038101906104129190612aa5565b6116cf565b60405161042a9796959493929190612b65565b60405180910390f35b61043b611b16565b6040516104489190612785565b60405180910390f35b61046b60048036038101906104669190612aa5565b611b22565b60405161047e9796959493929190612bf0565b60405180910390f35b61048f611eea565b005b6104ab60048036038101906104a69190612c74565b612045565b005b6104b5612350565b005b6104bf6124c8565b6040516104cc9190612785565b60405180910390f35b3373ffffffffffffffffffffffffffffffffffffffff16600260009054906101000a900473ffffffffffffffffffffffffffffffffffffffff1673ffffffffffffffffffffffffffffffffffffffff1614610565576040517f08c379a000000000000000000000000000000000000000000000000000000000815260040161055c90612dd1565b60405180910390fd5b61056f60006124d5565b600061057b60006124eb565b90506000600760008773ffffffffffffffffffffffffffffffffffffffff1673ffffffffffffffffffffffffffffffffffffffff16815260200190815260200160002090506000816004015414610607576040517f08c379a00000000000000000000000000000000000000000000000000000000081526004016105fe90612e63565b60405180910390fd5b6001816004018190555084816001019081610622919061308f565b5083816002019081610634919061308f565b50858160030160006101000a81548173ffffffffffffffffffffffffffffffffffffffff021916908373ffffffffffffffffffffffffffffffffffffffff1602179055508181600001819055506103e8816006018190555060008160050160006101000a81548160ff021916908315150217905550828160070190816106ba919061308f565b506006869080600181540180825580915050600190039060005260206000200160009091909190916101000a81548173ffffffffffffffffffffffffffffffffffffffff021916908373ffffffffffffffffffffffffffffffffffffffff160217905550817ff5f39971dd62d9929e3a9feaa6bb77fe7c7da0001babff8a65a7e51ad0201c1986868985600401548660050160009054906101000a900460ff1687600601548a6040516107739796959493929190613161565b60405180910390a2505050505050565b6000600680549050905090565b60006060806060600080606060006107a6610ae4565b90506000600460008373ffffffffffffffffffffffffffffffffffffffff1673ffffffffffffffffffffffffffffffffffffffff1681526020019081526020016000206040518060e00160405290816000820154815260200160018201805461080e90612eb2565b80601f016020809104026020016040519081016040528092919081815260200182805461083a90612eb2565b80156108875780601f1061085c57610100808354040283529160200191610887565b820191906000526020600020905b81548152906001019060200180831161086a57829003601f168201915b505050505081526020016002820180546108a090612eb2565b80601f01602080910402602001604051908101604052809291908181526020018280546108cc90612eb2565b80156109195780601f106108ee57610100808354040283529160200191610919565b820191906000526020600020905b8154815290600101906020018083116108fc57829003601f168201915b5050505050815260200160038201805461093290612eb2565b80601f016020809104026020016040519081016040528092919081815260200182805461095e90612eb2565b80156109ab5780601f10610980576101008083540402835291602001916109ab565b820191906000526020600020905b81548152906001019060200180831161098e57829003601f168201915b50505050508152602001600482015481526020016005820160009054906101000a900473ffffffffffffffffffffffffffffffffffffffff1673ffffffffffffffffffffffffffffffffffffffff1673ffffffffffffffffffffffffffffffffffffffff168152602001600682018054610a2490612eb2565b80601f0160208091040260200160405190810160405280929190818152602001828054610a5090612eb2565b8015610a9d5780601f10610a7257610100808354040283529160200191610a9d565b820191906000526020600020905b815481529060010190602001808311610a8057829003601f168201915b5050505050815250509050806000015181602001518260400151836060015184608001518560a001518660c001519850985098509850985098509850505090919293949596565b6000600260159054906101000a900460ff16610b35576040517f08c379a0000000000000000000000000000000000000000000000000000000008152600401610b2c90613231565b60405180910390fd5b6000806000905060005b600380549050811015610c3057600060038281548110610b6257610b61613251565b5b9060005260206000200160009054906101000a900473ffffffffffffffffffffffffffffffffffffffff16905082600460008373ffffffffffffffffffffffffffffffffffffffff1673ffffffffffffffffffffffffffffffffffffffff168152602001908152602001600020600401541115610c2257600460008273ffffffffffffffffffffffffffffffffffffffff1673ffffffffffffffffffffffffffffffffffffffff1681526020019081526020016000206004015492508093505b508080600101915050610b3f565b50819250505090565b60038181548110610c4957600080fd5b906000526020600020016000915054906101000a900473ffffffffffffffffffffffffffffffffffffffff1681565b60068181548110610c8857600080fd5b906000526020600020016000915054906101000a900473ffffffffffffffffffffffffffffffffffffffff1681565b6060600260159054906101000a900460ff1615610d0b576040518060400160405280601081526020017f566f74696e672068617320656e646564000000000000000000000000000000008152509050610d96565b600260149054906101000a900460ff1615610d5d576040518060400160405280601181526020017f566f74696e67206973206f6e676f696e670000000000000000000000000000008152509050610d96565b6040518060400160405280601a81526020017f566f74696e6720686173206e6f7420737461727465642079657400000000000081525090505b90565b600260009054906101000a900473ffffffffffffffffffffffffffffffffffffffff1681565b6000600760003373ffffffffffffffffffffffffffffffffffffffff1673ffffffffffffffffffffffffffffffffffffffff1681526020019081526020016000209050600260149054906101000a900460ff16610e51576040517f08c379a0000000000000000000000000000000000000000000000000000000008152600401610e48906132f2565b60405180910390fd5b600260159054906101000a900460ff1615610ea1576040517f08c379a0000000000000000000000000000000000000000000000000000000008152600401610e989061335e565b60405180910390fd5b8060050160009054906101000a900460ff1615610ef3576040517f08c379a0000000000000000000000000000000000000000000000000000000008152600401610eea906133ca565b60405180910390fd5b6000816004015403610f3a576040517f08c379a0000000000000000000000000000000000000000000000000000000008152600401610f3190613436565b60405180910390fd5b60018160050160006101000a81548160ff0219169083151502179055508181600601819055506005339080600181540180825580915050600190039060005260206000200160009091909190916101000a81548173ffffffffffffffffffffffffffffffffffffffff021916908373ffffffffffffffffffffffffffffffffffffffff1602179055508060040154600460008573ffffffffffffffffffffffffffffffffffffffff1673ffffffffffffffffffffffffffffffffffffffff16815260200190815260200160002060040160008282546110199190613485565b92505081905550505050565b606060038054806020026020016040519081016040528092919081815260200182805480156110a957602002820191906000526020600020905b8160009054906101000a900473ffffffffffffffffffffffffffffffffffffffff1673ffffffffffffffffffffffffffffffffffffffff168152602001906001019080831161105f575b5050505050905090565b600581815481106110c357600080fd5b906000526020600020016000915054906101000a900473ffffffffffffffffffffffffffffffffffffffff1681565b600260149054906101000a900460ff1681565b600460205280600052604060002060009150905080600001549080600101805461112e90612eb2565b80601f016020809104026020016040519081016040528092919081815260200182805461115a90612eb2565b80156111a75780601f1061117c576101008083540402835291602001916111a7565b820191906000526020600020905b81548152906001019060200180831161118a57829003601f168201915b5050505050908060020180546111bc90612eb2565b80601f01602080910402602001604051908101604052809291908181526020018280546111e890612eb2565b80156112355780601f1061120a57610100808354040283529160200191611235565b820191906000526020600020905b81548152906001019060200180831161121857829003601f168201915b50505050509080600301805461124a90612eb2565b80601f016020809104026020016040519081016040528092919081815260200182805461127690612eb2565b80156112c35780601f10611298576101008083540402835291602001916112c3565b820191906000526020600020905b8154815290600101906020018083116112a657829003601f168201915b5050505050908060040154908060050160009054906101000a900473ffffffffffffffffffffffffffffffffffffffff169080600601805461130490612eb2565b80601f016020809104026020016040519081016040528092919081815260200182805461133090612eb2565b801561137d5780601f106113525761010080835404028352916020019161137d565b820191906000526020600020905b81548152906001019060200180831161136057829003601f168201915b5050505050905087565b6060600580548060200260200160405190810160405280929190818152602001828054801561140b57602002820191906000526020600020905b8160009054906101000a900473ffffffffffffffffffffffffffffffffffffffff1673ffffffffffffffffffffffffffffffffffffffff16815260200190600101908083116113c1575b5050505050905090565b600260159054906101000a900460ff1681565b600760205280600052604060002060009150905080600001549080600101805461145190612eb2565b80601f016020809104026020016040519081016040528092919081815260200182805461147d90612eb2565b80156114ca5780601f1061149f576101008083540402835291602001916114ca565b820191906000526020600020905b8154815290600101906020018083116114ad57829003601f168201915b5050505050908060020180546114df90612eb2565b80601f016020809104026020016040519081016040528092919081815260200182805461150b90612eb2565b80156115585780601f1061152d57610100808354040283529160200191611558565b820191906000526020600020905b81548152906001019060200180831161153b57829003601f168201915b5050505050908060030160009054906101000a900473ffffffffffffffffffffffffffffffffffffffff16908060040154908060050160009054906101000a900460ff16908060060154908060070180546115b290612eb2565b80601f01602080910402602001604051908101604052809291908181526020018280546115de90612eb2565b801561162b5780601f106116005761010080835404028352916020019161162b565b820191906000526020600020905b81548152906001019060200180831161160e57829003601f168201915b5050505050905088565b60018060000154905081565b606060068054806020026020016040519081016040528092919081815260200182805480156116c557602002820191906000526020600020905b8160009054906101000a900473ffffffffffffffffffffffffffffffffffffffff1673ffffffffffffffffffffffffffffffffffffffff168152602001906001019080831161167b575b5050505050905090565b60608060006060600060606000600460008973ffffffffffffffffffffffffffffffffffffffff1673ffffffffffffffffffffffffffffffffffffffff168152602001908152602001600020600201600460008a73ffffffffffffffffffffffffffffffffffffffff1673ffffffffffffffffffffffffffffffffffffffff168152602001908152602001600020600101600460008b73ffffffffffffffffffffffffffffffffffffffff1673ffffffffffffffffffffffffffffffffffffffff16815260200190815260200160002060000154600460008c73ffffffffffffffffffffffffffffffffffffffff1673ffffffffffffffffffffffffffffffffffffffff168152602001908152602001600020600301600460008d73ffffffffffffffffffffffffffffffffffffffff1673ffffffffffffffffffffffffffffffffffffffff16815260200190815260200160002060040154600460008e73ffffffffffffffffffffffffffffffffffffffff1673ffffffffffffffffffffffffffffffffffffffff168152602001908152602001600020600601600460008f73ffffffffffffffffffffffffffffffffffffffff1673ffffffffffffffffffffffffffffffffffffffff16815260200190815260200160002060050160009054906101000a900473ffffffffffffffffffffffffffffffffffffffff168680546118d990612eb2565b80601f016020809104026020016040519081016040528092919081815260200182805461190590612eb2565b80156119525780601f1061192757610100808354040283529160200191611952565b820191906000526020600020905b81548152906001019060200180831161193557829003601f168201915b5050505050965085805461196590612eb2565b80601f016020809104026020016040519081016040528092919081815260200182805461199190612eb2565b80156119de5780601f106119b3576101008083540402835291602001916119de565b820191906000526020600020905b8154815290600101906020018083116119c157829003601f168201915b505050505095508380546119f190612eb2565b80601f0160208091040260200160405190810160405280929190818152602001828054611a1d90612eb2565b8015611a6a5780601f10611a3f57610100808354040283529160200191611a6a565b820191906000526020600020905b815481529060010190602001808311611a4d57829003601f168201915b50505050509350818054611a7d90612eb2565b80601f0160208091040260200160405190810160405280929190818152602001828054611aa990612eb2565b8015611af65780601f10611acb57610100808354040283529160200191611af6565b820191906000526020600020905b815481529060010190602001808311611ad957829003601f168201915b505050505091509650965096509650965096509650919395979092949650565b60008060000154905081565b600060608060006060600080600760008973ffffffffffffffffffffffffffffffffffffffff1673ffffffffffffffffffffffffffffffffffffffff16815260200190815260200160002060000154600760008a73ffffffffffffffffffffffffffffffffffffffff1673ffffffffffffffffffffffffffffffffffffffff168152602001908152602001600020600101600760008b73ffffffffffffffffffffffffffffffffffffffff1673ffffffffffffffffffffffffffffffffffffffff168152602001908152602001600020600201600760008c73ffffffffffffffffffffffffffffffffffffffff1673ffffffffffffffffffffffffffffffffffffffff16815260200190815260200160002060030160009054906101000a900473ffffffffffffffffffffffffffffffffffffffff16600760008d73ffffffffffffffffffffffffffffffffffffffff1673ffffffffffffffffffffffffffffffffffffffff168152602001908152602001600020600701600760008e73ffffffffffffffffffffffffffffffffffffffff1673ffffffffffffffffffffffffffffffffffffffff16815260200190815260200160002060040154600760008f73ffffffffffffffffffffffffffffffffffffffff1673ffffffffffffffffffffffffffffffffffffffff16815260200190815260200160002060050160009054906101000a900460ff16858054611d3990612eb2565b80601f0160208091040260200160405190810160405280929190818152602001828054611d6590612eb2565b8015611db25780601f10611d8757610100808354040283529160200191611db2565b820191906000526020600020905b815481529060010190602001808311611d9557829003601f168201915b50505050509550848054611dc590612eb2565b80601f0160208091040260200160405190810160405280929190818152602001828054611df190612eb2565b8015611e3e5780601f10611e1357610100808354040283529160200191611e3e565b820191906000526020600020905b815481529060010190602001808311611e2157829003601f168201915b50505050509450828054611e5190612eb2565b80601f0160208091040260200160405190810160405280929190818152602001828054611e7d90612eb2565b8015611eca5780601f10611e9f57610100808354040283529160200191611eca565b820191906000526020600020905b815481529060010190602001808311611ead57829003601f168201915b505050505092509650965096509650965096509650919395979092949650565b600260009054906101000a900473ffffffffffffffffffffffffffffffffffffffff1673ffffffffffffffffffffffffffffffffffffffff163373ffffffffffffffffffffffffffffffffffffffff1614611f7a576040517f08c379a0000000000000000000000000000000000000000000000000000000008152600401611f719061352b565b60405180910390fd5b600260149054906101000a900460ff161580611fa25750600260159054906101000a900460ff165b611fe1576040517f08c379a0000000000000000000000000000000000000000000000000000000008152600401611fd8906135bd565b60405180910390fd5b6001600260146101000a81548160ff0219169083151502179055506000600260156101000a81548160ff0219169083151502179055507f877e2548498f42b7975a186b94ef1d32c86d420b7b806dd2be2bea293b89590460405160405180910390a1565b3373ffffffffffffffffffffffffffffffffffffffff16600260009054906101000a900473ffffffffffffffffffffffffffffffffffffffff1673ffffffffffffffffffffffffffffffffffffffff16146120d5576040517f08c379a00000000000000000000000000000000000000000000000000000000081526004016120cc9061364f565b60405180910390fd5b8473ffffffffffffffffffffffffffffffffffffffff16600460008773ffffffffffffffffffffffffffffffffffffffff1673ffffffffffffffffffffffffffffffffffffffff16815260200190815260200160002060050160009054906101000a900473ffffffffffffffffffffffffffffffffffffffff1673ffffffffffffffffffffffffffffffffffffffff16036121a5576040517f08c379a000000000000000000000000000000000000000000000000000000000815260040161219c906136e1565b60405180910390fd5b6121af60016124d5565b60006121bb60016124eb565b90506000600460008873ffffffffffffffffffffffffffffffffffffffff1673ffffffffffffffffffffffffffffffffffffffff168152602001908152602001600020905085816002019081612211919061308f565b5084816001019081612223919061308f565b508181600001819055508381600301908161223e919061308f565b5060008160040181905550868160050160006101000a81548173ffffffffffffffffffffffffffffffffffffffff021916908373ffffffffffffffffffffffffffffffffffffffff1602179055508281600601908161229d919061308f565b506003879080600181540180825580915050600190039060005260206000200160009091909190916101000a81548173ffffffffffffffffffffffffffffffffffffffff021916908373ffffffffffffffffffffffffffffffffffffffff160217905550817fd297f12b256bb8485a6013fb5e302017018123e99a0ebb20756c09e1707b4b9087878785600401548c8960405161233f96959493929190613701565b60405180910390a250505050505050565b600260009054906101000a900473ffffffffffffffffffffffffffffffffffffffff1673ffffffffffffffffffffffffffffffffffffffff163373ffffffffffffffffffffffffffffffffffffffff16146123e0576040517f08c379a00000000000000000000000000000000000000000000000000000000081526004016123d7906137f0565b60405180910390fd5b600260149054906101000a900460ff1661242f576040517f08c379a0000000000000000000000000000000000000000000000000000000008152600401612426906132f2565b60405180910390fd5b600260159054906101000a900460ff161561247f576040517f08c379a00000000000000000000000000000000000000000000000000000000081526004016124769061335e565b60405180910390fd5b6001600260156101000a81548160ff0219169083151502179055507f7a19ed057db79e3c2fa0b97a54b43bef4fce74b31bb6c01af514b9a18a7f70ab60405160405180910390a1565b6000600380549050905090565b6001816000016000828254019250508190555050565b600081600001549050919050565b6000604051905090565b600080fd5b600080fd5b600073ffffffffffffffffffffffffffffffffffffffff82169050919050565b60006125388261250d565b9050919050565b6125488161252d565b811461255357600080fd5b50565b6000813590506125658161253f565b92915050565b600080fd5b600080fd5b6000601f19601f8301169050919050565b7f4e487b7100000000000000000000000000000000000000000000000000000000600052604160045260246000fd5b6125be82612575565b810181811067ffffffffffffffff821117156125dd576125dc612586565b5b80604052505050565b60006125f06124f9565b90506125fc82826125b5565b919050565b600067ffffffffffffffff82111561261c5761261b612586565b5b61262582612575565b9050602081019050919050565b82818337600083830152505050565b600061265461264f84612601565b6125e6565b9050828152602081018484840111156126705761266f612570565b5b61267b848285612632565b509392505050565b600082601f8301126126985761269761256b565b5b81356126a8848260208601612641565b91505092915050565b600080600080608085870312156126cb576126ca612503565b5b60006126d987828801612556565b945050602085013567ffffffffffffffff8111156126fa576126f9612508565b5b61270687828801612683565b935050604085013567ffffffffffffffff81111561272757612726612508565b5b61273387828801612683565b925050606085013567ffffffffffffffff81111561275457612753612508565b5b61276087828801612683565b91505092959194509250565b6000819050919050565b61277f8161276c565b82525050565b600060208201905061279a6000830184612776565b92915050565b600081519050919050565b600082825260208201905092915050565b60005b838110156127da5780820151818401526020810190506127bf565b60008484015250505050565b60006127f1826127a0565b6127fb81856127ab565b935061280b8185602086016127bc565b61281481612575565b840191505092915050565b6128288161252d565b82525050565b600060e082019050612843600083018a612776565b818103602083015261285581896127e6565b9050818103604083015261286981886127e6565b9050818103606083015261287d81876127e6565b905061288c6080830186612776565b61289960a083018561281f565b81810360c08301526128ab81846127e6565b905098975050505050505050565b60006020820190506128ce600083018461281f565b92915050565b6128dd8161276c565b81146128e857600080fd5b50565b6000813590506128fa816128d4565b92915050565b60006020828403121561291657612915612503565b5b6000612924848285016128eb565b91505092915050565b6000602082019050818103600083015261294781846127e6565b905092915050565b6000806040838503121561296657612965612503565b5b600061297485828601612556565b9250506020612985858286016128eb565b9150509250929050565b600081519050919050565b600082825260208201905092915050565b6000819050602082019050919050565b6129c48161252d565b82525050565b60006129d683836129bb565b60208301905092915050565b6000602082019050919050565b60006129fa8261298f565b612a04818561299a565b9350612a0f836129ab565b8060005b83811015612a40578151612a2788826129ca565b9750612a32836129e2565b925050600181019050612a13565b5085935050505092915050565b60006020820190508181036000830152612a6781846129ef565b905092915050565b60008115159050919050565b612a8481612a6f565b82525050565b6000602082019050612a9f6000830184612a7b565b92915050565b600060208284031215612abb57612aba612503565b5b6000612ac984828501612556565b91505092915050565b600061010082019050612ae8600083018b612776565b8181036020830152612afa818a6127e6565b90508181036040830152612b0e81896127e6565b9050612b1d606083018861281f565b612b2a6080830187612776565b612b3760a0830186612a7b565b612b4460c0830185612776565b81810360e0830152612b5681846127e6565b90509998505050505050505050565b600060e0820190508181036000830152612b7f818a6127e6565b90508181036020830152612b9381896127e6565b9050612ba26040830188612776565b8181036060830152612bb481876127e6565b9050612bc36080830186612776565b81810360a0830152612bd581856127e6565b9050612be460c083018461281f565b98975050505050505050565b600060e082019050612c05600083018a612776565b8181036020830152612c1781896127e6565b90508181036040830152612c2b81886127e6565b9050612c3a606083018761281f565b8181036080830152612c4c81866127e6565b9050612c5b60a0830185612776565b612c6860c0830184612a7b565b98975050505050505050565b600080600080600060a08688031215612c9057612c8f612503565b5b6000612c9e88828901612556565b955050602086013567ffffffffffffffff811115612cbf57612cbe612508565b5b612ccb88828901612683565b945050604086013567ffffffffffffffff811115612cec57612ceb612508565b5b612cf888828901612683565b935050606086013567ffffffffffffffff811115612d1957612d18612508565b5b612d2588828901612683565b925050608086013567ffffffffffffffff811115612d4657612d45612508565b5b612d5288828901612683565b9150509295509295909350565b7f4f6e6c79204f7267616e697a65722063616e2063726561746520566f7465722060008201527f6e6f7420796f7500000000000000000000000000000000000000000000000000602082015250565b6000612dbb6027836127ab565b9150612dc682612d5f565b604082019050919050565b60006020820190508181036000830152612dea81612dae565b9050919050565b7f566f74657220776974682074686973206164647265737320616c72656164792060008201527f6578697374730000000000000000000000000000000000000000000000000000602082015250565b6000612e4d6026836127ab565b9150612e5882612df1565b604082019050919050565b60006020820190508181036000830152612e7c81612e40565b9050919050565b7f4e487b7100000000000000000000000000000000000000000000000000000000600052602260045260246000fd5b60006002820490506001821680612eca57607f821691505b602082108103612edd57612edc612e83565b5b50919050565b60008190508160005260206000209050919050565b60006020601f8301049050919050565b600082821b905092915050565b600060088302612f457fffffffffffffffffffffffffffffffffffffffffffffffffffffffffffffffff82612f08565b612f4f8683612f08565b95508019841693508086168417925050509392505050565b6000819050919050565b6000612f8c612f87612f828461276c565b612f67565b61276c565b9050919050565b6000819050919050565b612fa683612f71565b612fba612fb282612f93565b848454612f15565b825550505050565b600090565b612fcf612fc2565b612fda818484612f9d565b505050565b5b81811015612ffe57612ff3600082612fc7565b600181019050612fe0565b5050565b601f8211156130435761301481612ee3565b61301d84612ef8565b8101602085101561302c578190505b61304061303885612ef8565b830182612fdf565b50505b505050565b600082821c905092915050565b600061306660001984600802613048565b1980831691505092915050565b600061307f8383613055565b9150826002028217905092915050565b613098826127a0565b67ffffffffffffffff8111156130b1576130b0612586565b5b6130bb8254612eb2565b6130c6828285613002565b600060209050601f8311600181146130f957600084156130e7578287015190505b6130f18582613073565b865550613159565b601f19841661310786612ee3565b60005b8281101561312f5784890151825560018201915060208501945060208101905061310a565b8683101561314c5784890151613148601f891682613055565b8355505b6001600288020188555050505b505050505050565b600060e082019050818103600083015261317b818a6127e6565b9050818103602083015261318f81896127e6565b905061319e604083018861281f565b6131ab6060830187612776565b6131b86080830186612a7b565b6131c560a0830185612776565b81810360c08301526131d781846127e6565b905098975050505050505050565b7f566f74696e6720706572696f6420686173206e6f7420656e6465642079657400600082015250565b600061321b601f836127ab565b9150613226826131e5565b602082019050919050565b6000602082019050818103600083015261324a8161320e565b9050919050565b7f4e487b7100000000000000000000000000000000000000000000000000000000600052603260045260246000fd5b7f566f74696e6720706572696f6420686173206e6f74207374617274656420796560008201527f7400000000000000000000000000000000000000000000000000000000000000602082015250565b60006132dc6021836127ab565b91506132e782613280565b604082019050919050565b6000602082019050818103600083015261330b816132cf565b9050919050565b7f566f74696e6720706572696f642068617320616c726561647920656e64656400600082015250565b6000613348601f836127ab565b915061335382613312565b602082019050919050565b600060208201905081810360008301526133778161333b565b9050919050565b7f596f75206861766520616c726561647920566f74656400000000000000000000600082015250565b60006133b46016836127ab565b91506133bf8261337e565b602082019050919050565b600060208201905081810360008301526133e3816133a7565b9050919050565b7f596f752068617665206e6f20726967687420746f20566f746500000000000000600082015250565b60006134206019836127ab565b915061342b826133ea565b602082019050919050565b6000602082019050818103600083015261344f81613413565b9050919050565b7f4e487b7100000000000000000000000000000000000000000000000000000000600052601160045260246000fd5b60006134908261276c565b915061349b8361276c565b92508282019050808211156134b3576134b2613456565b5b92915050565b7f4f6e6c7920746865206f7267616e697a65722063616e2073746172742074686560008201527f20766f74696e6720706572696f64000000000000000000000000000000000000602082015250565b6000613515602e836127ab565b9150613520826134b9565b604082019050919050565b6000602082019050818103600083015261354481613508565b9050919050565b7f566f74696e6720706572696f642068617320616c72656164792073746172746560008201527f6400000000000000000000000000000000000000000000000000000000000000602082015250565b60006135a76021836127ab565b91506135b28261354b565b604082019050919050565b600060208201905081810360008301526135d68161359a565b9050919050565b7f4f6e6c79204f7267616e697a65722063616e206175746f72697a652063616e6460008201527f6964617465000000000000000000000000000000000000000000000000000000602082015250565b60006136396025836127ab565b9150613644826135dd565b604082019050919050565b600060208201905081810360008301526136688161362c565b9050919050565b7f43616e64696461746520776974682074686973206164647265737320616c726560008201527f6164792065786973747300000000000000000000000000000000000000000000602082015250565b60006136cb602a836127ab565b91506136d68261366f565b604082019050919050565b600060208201905081810360008301526136fa816136be565b9050919050565b600060c082019050818103600083015261371b81896127e6565b9050818103602083015261372f81886127e6565b9050818103604083015261374381876127e6565b90506137526060830186612776565b61375f608083018561281f565b81810360a083015261377181846127e6565b9050979650505050505050565b7f4f6e6c7920746865206f7267616e697a65722063616e20656e6420746865207660008201527f6f74696e6720706572696f640000000000000000000000000000000000000000602082015250565b60006137da602c836127ab565b91506137e58261377e565b604082019050919050565b60006020820190508181036000830152613809816137cd565b905091905056fea2646970667358221220324e57e775fa85457a52720ab61b4d8db6e1c531580a9c53b7575ed160761fe164736f6c63430008180033",
  "linkReferences": {},
  "deployedLinkReferences": {}
}